:1000000000800020BD0100008D06000059060000A0
:100010005906000059060000590600005906000064
:100020005906000059060000590600008D06000020
:100030008D06000059060000FD160000BD170000E7
:100040008D0600008D0600008D0600008D06000064
:100050008D0600008D0600008D0600008D06000054
:100060008D0600008D0600008D0600008D06000044
:100070008D0600008D0600008D0600008D06000034
:100080008D0600008D0600008D0600008D06000024
:100090008D0600008D0600008D0600008D06000014
:1000A0008D0600008D0600008D0600008D06000004
:1000B0008D0600008D0600008D0600008D060000F4
:1000C0008D0600008D0600008D0600008D060000E4
:1000D0008D0600008D0600008D0600008D060000D4
:1000E0008D0600008D0600008D0600008D060000C4
:1000F0008D060000891900008D060000A91A000075
:100100008D060000C91B00008D0600008D06000052
:100110008D0600008D0600008D0600008D06000093
:100120008D0600008D0600008D0600008D06000083
:100130008D0600008D0600008D0600008D06000073
:100140008D0600008D0600008D0600008D06000063
:100150008D0600008D0600008D0600008D06000053
:100160008D060000110A00008D0600008D060000BB
:100170008D0600008D0600008D0600008D06000033
:100180008D0600008D0600008D0600008D06000023
:100190008D0600008D0600008D0600008D06000013
:1001A0008D0600008D0600008D0600008D06000003
:1001B0008D0600008D0600008D060000574B4CF2A6
:1001C000205210B51A804DF628121A8000BF00BFC9
:1001D00000F060FA524B4FF010621A60514A9A6078
:1001E000514ADA60514A136813F4807301BF5049D1
:1001F0000B604FF4A85313604E4B1A78110748BF99
:100200001A784D4944BF42F008021A704B4B2A221B
:100210001A704B4A4B4B8B4277D34B4B4B4A0021C6
:10022000934277D34A4A4B4C0023114654F823009B
:1002300042F8230001336F2BF8D1474B474A802007
:1002400003F8010B9342FBD1454B1960454B8A22C1
:100250001A70A3F5805324225A70A0221A709A793A
:100260009207FCD59A79D406FCD43F4B19469A796B
:1002700002F00C02082AFAD103221A7140225A71A4
:100280008B799806FCD5384B9A795106FCD5374ABC
:10029000374911600221516020221A70324A937945
:1002A00003F00C030C2BFAD1324B334A1A60334B58
:1002B0004BF67F321A6000225A60072243F8042C62
:1002C0002F4AC3F80C2D62B600F08AFA184B1B684F
:1002D000DA0705D52B4800F0E5F92B4B2B4A1A60BD
:1002E0002B4B1B785B0609D5274C284B22689A427A
:1002F00004D1244800F0D6F90023236001F006FD64
:1003000000F0CEF901F062FAFEE752F8040F43F86C
:10031000040B80E743F8041B82E700BF0E20054072
:1003200030800440823F04000100002B10D00340C5
:1003300014D0034002D00740C887FF1F00E00740E9
:10034000D81E00001C87FF1FC887FF1F8C8AFF1F55
:100350000082FF1F0000000000E400E05FE400E016
:1003600008ED00E000500640004006404480044094
:100370000000131104800440C010050014E000E0E8
:100380000000202000DD68501CE00340A5C3945A03
:1003900000F00740FFFFFFFFFFFFFFFFFFFFFFFF32
:1003A000FFFFFFFFFFFFFFFFFFFFFFFFFFFFFFFF5D
:1003B000FFFFFFFFFFFFFFFFFFFFFFFFFFFFFFFF4D
:1003C000FFFFFFFFFFFFFFFFFFFFFFFFFFFFFFFF3D
:1003D000FFFFFFFFFFFFFFFFFFFFFFFFFFFFFFFF2D
:1003E000FFFFFFFFFFFFFFFFFFFFFFFFFFFFFFFF1D
:1003F000FFFFFFFFFFFFFFFFFFFFFFFFFFFFFFFF0D
:10040000FFFFFFFFFFFFFFFFFFFFFFFFDEF9FFFF23
:100410000648074B10B5834204D0064B002B01D091
:1004200000F04EF810BC01BC0047C046C887FF1F53
:10043000C887FF1F0000000008480949091A8910F1
:10044000CB0F591810B5491004D0064B002B01D022
:1004500000F036F810BC01BC0047C046C887FF1F3B
:10046000C887FF1F0000000010B5084C2378002B40
:1004700009D1FFF7CDFF064B002B02D00548AFF3A3
:1004800000800123237010BC01BC0047C887FF1FF8
:1004900000000000DC1E0000064B10B5002B03D04E
:1004A00005490648AFF30080FFF7C6FF10BC01BC4A
:1004B0000047C04600000000CC87FF1FDC1E000084
:1004C0001847C04610B5052000F01CF901284FF070
:1004D00004000CBF8024002400F014F901280CBF94
:1004E0004023002303201C4400F00CF901280CBF1A
:1004F0002023002302201C4400F004F901280CBF33
:100500001023002301201C4400F0FCF801280CBF3C
:1005100008200020204410BD10B5C400C4F3C01151
:10052000082000F0CFF8C4F38011072000F0CAF8CB
:10053000C4F34011092000F0C5F8C4F300110A20EB
:1005400000F0C0F8C4F3C0010B20BDE8104000F07B
:10055000B9B808B501210B2000F0E2F801210A200A
:1005600000F0DEF80121092000F0DAF8012107206F
:1005700000F0D6F80121082000F0D2F80021042074
:1005800000F0CEF80021052000F0CAF80021032079
:1005900000F0C6F80021022000F0C2F8002101207E
:1005A00000F0BEF80D20012100F0BAF80820BDE8E7
:1005B0000840FFF7B1BFFFFF70B504460820FFF702
:1005C000ABFF124DFFF77EFF10F0400608D0013D53
:1005D000F8D14FF0FF360820FFF79EFF304670BD80
:1005E00004F007042046FFF797FF44F01000FFF7E0
:1005F00093FF064CFFF766FF430602D4013CF9D196
:10060000E7E70020FFF788FFE5E700BF20A107002C
:1006100010B50446FFF7D0FF58B9E008FFF7CCFF4C
:1006200048B9A009FFF7C8FF002814BF0320002025
:1006300010BD0120FCE70220FAE710B501F010F828
:1006400040B100F0E7FFC4B22046FFF7E1FF002809
:10065000FAD1F3E710BDFFFF08B50B4D2C462B6810
:10066000580301D500F0D4F92368590501D501F0EC
:100670008BF923681A0501D501F016FA2368DB040B
:10068000EDD501F0A1FAEAE73480044008B5FFF7A0
:10069000E3FFFFFF014B10221A8070470020054046
:1006A0007047FFFF044B054900221A600A60044AA4
:1006B000106010221A60704714D0034004D0034029
:1006C00000D00340212810B509D80D4B53F8302035
:1006D00092F880423CB1012311B182F8803010BD04
:1006E00082F80031FBE703EBC0035B681A6819B1BD
:1006F00042F003021A60F2E722F00202FAE700BFBA
:10070000601D000021289FBF044B53F8303093F840
:100710000002C0B288BF0020704700BF601D00000B
:10072000212817D8144A02EBC00301295B6852F84C
:10073000300001D004290ED1012280F880224FF42C
:10074000A2721A601A6804290CBF42F0200222F03B
:1007500020021A607047002280F8802211B94FF4FD
:100760008072F6E7022902D140F20312F1E7032971
:1007700008BF4FF48172ECE7601D000072B60B4BAE
:100780000B4A0C491B681268096862B6490102D518
:10079000322B88BF0132C3F53B4330207F33B3FB9C
:1007A000F0F34FF47A7000FB0230704718E000E07D
:1007B000E487FF1F04ED00E038B50446FFF7DEFFD5
:1007C000054624B938BD013CFCD005F57A75FFF724
:1007D000D5FF401BB0F57A7FF5D201F001F8F6E7BE
:1007E000214B4FF4000210B51A604FF080721A606E
:1007F0004FF000721A604FF080621A604FF0006292
:100800001A601A4B1A4A1B4C00204BF6FF711860F5
:10081000596028231360936013619361136293629C
:10082000136393630922226004F58054043420602A
:100830006160A360236144F8042C04F5FE24206069
:100840000D4801600D490B608B600D4B1A6001F083
:100850000DF81920FFF7B0FF00F036FE40F213103C
:10086000BDE81040FFF7A8BF08E100E004800340A6
:100870000C8003400080034008800B400C800B403C
:1008800000800B40431E032B14D872B60A4951F85E
:10089000230068B170B4094C058834F81320466809
:1008A00041F82360521B24F8132062B670BC7047D5
:1008B00062B67047002070477888FF1F788AFF1F54
:1008C00030B472B62B4A13781D0706D52A4B196A25
:1008D000002936D0996A002941D053781C0706D5E3
:1008E000254B196C00293ED0996C002939D093789A
:1008F000190705D5204B196E002936D0996E89B19C
:10090000D3781B0707D51C4BD3F880207AB3D3F8D4
:10091000882011243AB162B6184B00221A7030BCFC
:1009200000F056BE0D241549154D0A7843F8345091
:1009300003EBC4030830013A58600A7062B630BC59
:10094000704704220D4C0F4D217843F8325003EBD1
:10095000C20308304A1E5860227062B6EFE70524D1
:10096000E1E70924DFE70822ECE70C22EAE710229E
:10097000E8E700BFC41E00000080FF1FC688FF1FFD
:10098000C800400088004000421E032A0ED81C4BBD
:10099000400140F0100070B4184472B6194CA35CCA
:1009A000032B1CD8DFE803F0031316187047032548
:1009B0000E88A55410F0080F14BFC823882343EAFB
:1009C00006430831C0E9003162B670BC7047083098
:1009D0000225EDE70525EBE708300425E8E70A4B9B
:1009E00053F8220040B1094B53F82200416043F80C
:1009F000221062B670BC704743F82210034BF6E732
:100A00000080FF1FC088FF1FA088FF1FB088FF1F46
:100A10002DE9F04F8A4C8B4E87B02578EDB26B07ED
:100A20001AD5894B1B78ABB188490A7802F0FF03CD
:100A30002AB1013BDBB20B70002B00F0FF8184492F
:100A40000A7802F0FF032AB1013BDBB20B70002BE6
:100A500000F032820423237015F0080300F0CC80EC
:100A60003378DBB21A0943D0DFF8F8814FEA9309F3
:100A700008EBC90A013ADAF8047013F00803D5B29A
:100A8000A7F1080040F09D8058F83920120C91B26F
:100A900027F8081C002A00F08B806E4A27F8063CD5
:100AA00047F8043C52F82530002B00F0F1816A4FE2
:100AB00057F825205060DFF8D0B147F825003BF803
:100AC000153019442BF8151000F064FD002800F0D3
:100AD000D881624A624B1AF0080F00F1080018BF73
:100AE0001346CAF8040048F839300823237094E705
:100AF00099085C4D55F8313005EBC100C3F3830311
:100B0000013B40680C2B4FD8DFE813F05301530131
:100B10004E004E004E004E004E004E000D004E00A6
:100B20004E004E00C400504B01931F6897B3DFF88E
:100B30005CB1DFF85C81BBF800904C4B98F800C0CA
:100B400018784A46402A28BF402240F0020ABCF1E9
:100B5000000F8CF0010C88F800C0A9EB02010CBF5B
:100B60004FF0880C4FF0C80C05EBCA084CEA024C59
:100B700089B280F00100ABF800103A4445F83AC061
:100B8000C8F80470187019B9B9F13F0F98BF002266
:100B9000019B1A60364B1A88B2F5A06F04D1354A12
:100BA0009978117000225A70334A012313709CE720
:100BB0002A4A2B4B1AF0080F18BF134648F8393051
:100BC00093E700F005FD2D482D4950F82520002A17
:100BD00000F06281536811F805C040F8253002F139
:100BE0000803CAF80430BCF1030F1ED8DFE81CF07C
:100BF0001B00310234022E02E80700F12181290690
:100C000000F12D82AA0706D51E4A0D49137802204D
:100C1000DBB213700870EB0602D5094B10221A7074
:100C200007B0BDE8F08F03234B551AF0080F128868
:100C30000CBF8823C82343EA024348F8393054E7FD
:100C40008020074090200740C488FF1FC588FF1FF1
:100C5000D588FF1F7888FF1F8888FF1FC8004000C5
:100C6000880040000080FF1F6C88FF1F6888FF1FFE
:100C70009888FF1F9820074094200740A088FF1FF6
:100C8000C088FF1F88200740788AFF1F6A88FF1FDF
:100C90006988FF1F0368D0F804C0894845F831000F
:100CA000884FDFF838E2DFF86882019798B240F2A7
:100CB000816A00214FF001095045CEE9003C3960BE
:100CC0002961A96188F8009000F22481B0F5D06F05
:100CD00080F09982B0F5817F00F0018200F2E68118
:100CE000802800F0F782822840F0D2810CF07F0348
:100CF000042B00F2CD817448DFF8F0E101704170FF
:100D00001EF823304FEA1C419F07059140F19C8358
:100D1000012980F8009040F2C6826C4B03930221B7
:100D2000981E4FF400330591049102930021684B03
:100D3000029F93F800B04BF0020905EBC90C4FF08D
:100D4000010ACCF804004FF0C80E4EEA07078BF0FA
:100D5000010C45F8397088F8002083F800C000299C
:100D600040F03882049A402A1CD14CF0020C05EB6A
:100D7000CC02039F5760BAF1010F4FEA014E40F0D9
:100D80009E824EF088020F4445F83C2088F800A06F
:100D900083F800B03846402904D100214D4B019A18
:100DA000198010604C4A012313704B4A01231370C1
:100DB0009BE64A4B1A8842F221039A4237D1484BAC
:100DC00090F800C0427883F800C05A7090F802C0D2
:100DD000C27883F802C0DA701A6890F804C083F809
:100DE00004C0862A90F805C0807983F805C0987100
:100DF00008BF3C4BDFF8188104BF0F221A70344B38
:100E000098F800001A78002882F0010C42F00202E3
:100E100083F800C00CBF8823C82345F8323005EBA7
:100E2000C20280F00100002388F800005360244BC8
:100E3000294A45F831300123137056E600BEFEE51D
:100E4000294A25482249136102250570274E0B7057
:100E5000274911609160274C274D93610D21317016
:100E6000FF21217029702374244B29739F251D7045
:100E7000234C244B012101705460D36007B0BDE8BE
:100E8000F08F214A48F839001378013313702CE6AB
:100E900042F825001D4F0EE64B5D032B00F2FF804C
:100EA00001A252F823F000BFEB0A0000EB0A000099
:100EB000791000007310000000F0E0FBCAE500BFED
:100EC000C80040006C88FF1F7088FF1F7288FF1FDA
:100ED0006888FF1F6A88FF1F942007409888FF1FBB
:100EE000808AFF1FC588FF1F0080FF1FC0200740AA
:100EF0008800400088200740802007408420074069
:100F0000E887FF1F2888FF1FC688FF1F8888FF1FEC
:100F10006988FF1F42F2210E70453FF443AF00F293
:100F2000AE80B0F5086F00F0DE81B0F5106F40F0D4
:100F3000AF802A6AB849C3F3074317060B7000F164
:100F40003582AB6A180600F17A822B6B190600F124
:100F50007182AB6B1A0600F168822B6C1B0600F1E4
:100F60005F82AB6C1F0600F156822B6D180600F1F4
:100F70004D82AB6D190600F144822B6E1A0600F10A
:100F80003B82AB6E1B0600F132822B6F1F0600F115
:100F90002982AB6F180600F12082D5F8803019063F
:100FA00000F11582D5F888301A0600F10A82D5F8CA
:100FB00090301B0600F1FF81D5F898301F0600F134
:100FC000A781964B0393964B0293964B0593964FAE
:100FD000964BDFF894B204934FF0000A039B53F84A
:100FE000040B039330B1D0F8049000F0F1FA4846B6
:100FF0000028F8D1029B1868039B1A46002342F888
:10100000043C47F82A3030B1D0F8049000F0E0FA00
:1010100048460028F8D1049B13F8012B0493029B47
:101020001946002341F8043B059B02911946002311
:1010300041F8043B023A4FF0000305912BF81A30B7
:10104000032A6AD8DFE802F0B964B96404234B5577
:10105000EBE502234B55E8E505234B55E5E57449DF
:10106000744B80220D2008701A70AA077FF5D3AD4B
:10107000CAE501234B5538E500234B5535E542F2CF
:10108000212C604538D042F22133984200F09F80F5
:10109000674B0F221A70684A0123137085E61AF015
:1010A000080F0CBF022303234B551EE540F202310B
:1010B000884240F088800CF07F0CBCF1040FE7D828
:1010C000190CE5D15A4810F82C3043F0020300F80F
:1010D0002C30CDE902110846CDE9041127E60CF0C9
:1010E0007F0CBCF1040FD3D8190CD1D1504810F8A3
:1010F0002C3023F00203EAE7DFF870E14F4F50484D
:10110000DEF800E0C7F800E0C3F307430370E0E750
:10111000049B4FF0010203F8012C0AF1010ABAF115
:10112000040F7FF45BAFDFF84891464F99F8003029
:10113000454A002118073970137000F1268199F88B
:101140000130424900220B7019072A63AA6300F19B
:101150000B8199F802303E4900220B702A65AA657E
:101160001A0700F1EE8099F803303A4900220B701B
:101170001B072A67AA6700F1D18098F800A0002316
:101180008AF00102C5F89030C5F89830324B93F8D8
:1011900000B04BF0020905EBC90000214160BAF133
:1011A000000F40F07F815146CDE902AACDE904AAA3
:1011B00050464FF0880E5746C7E5049B4FF000029B
:1011C00003F8012CA9E7B0F5A06F7FF461AF4FF0F1
:1011D000010ADBE740294CF0020C7FF6C8AD1F483E
:1011E0001F4A83F800B0BAF1010F08BF0246039B03
:1011F00088F800A005EBCC004039436045F83C205E
:1012000003F14000CAE51749486800283FF440AFA1
:101210001B0C1FFA8CF932E0C488FF1F7888FF1F6F
:10122000A088FF1FB088FF1F8888FF1FC088FF1F8E
:10123000C02007408020074094200740888AFF1F75
:10124000D488FF1FC688FF1FC4200740C82007405E
:10125000CC200740D02007406888FF1F880040004E
:10126000C8004000701E0000788AFF1FE487FF1F3F
:10127000C41E00000C31486800283FF409AFB1F8E3
:1012800000E09E45F6D1B1F802E0CE45F2D11B0A4E
:10129000032B0CBF03780B894FEA1C4C9C4528BFDD
:1012A0009C46CDF814C0059B402B194628BF402111
:1012B0000F040297471804910397591A37E583F8EA
:1012C00000B0059B88F800A04EF0C80245F83C200D
:1012D000184460E578484FEA1C43012B05930170E0
:1012E0004170E0D919E5754B73481B7803705FEACC
:1012F0001C4C07D0431C03934FF48033CDE9049971
:10130000029314E56146CDE902C0CDE904CC0EE5B7
:10131000D5F89C00083800F05BF952E600F03AF985
:10132000002800F0AF80664B0830C5E9203000F09F
:1013300031F9002800F0A080624B0830C5E9223066
:101340001BE700F027F9002800F0A7805C4B08306D
:10135000C5E9183000F01EF9002800F09980594BBB
:101360000830C5E91A30FEE600F014F900287ED0F6
:10137000534B0830C5E9103000F00CF9002871D04B
:10138000504B0830C5E91230E3E600F003F90028BD
:1013900063D04B4B0830C5E9083000F0FBF800285B
:1013A00056D0484B0830C5E90A30C8E6686A0838A4
:1013B00000F00EF9C5E5D5F89400083800F008F9FA
:1013C000FAE5D5F88C00083800F002F9EFE5D5F819
:1013D0008400083800F0FCF8E4E5E86F083800F015
:1013E000F7F8DAE5686F083800F0F2F8D1E5E86E52
:1013F000083800F0EDF8C8E5686E083800F0E8F845
:10140000BFE5E86D083800F0E3F8B6E5686D083828
:1014100000F0DEF8ADE5E86C083800F0D9F8A4E596
:10142000686C083800F0D4F89BE5E86B083800F0E9
:10143000CFF892E5686B083800F0CAF889E5E86AE9
:10144000083800F0C5F880E501297FF62CAF64E488
:101450003B78A86201333B7071E63B782862013328
:101460003B709AE73B78A86401333B7071E63B78A8
:10147000286401333B707FE73B78C5F8880001336F
:101480003B707AE63B78C5F8800001333B704EE74D
:101490003B78A86601333B7065E63B7828660133EC
:1014A0003B7057E7CDE90211CDE9041108464FF032
:1014B000C80E0F4649E400BF7088FF1FC488FF1F95
:1014C00088004000C8004000F8B500F0E3FB284B5E
:1014D0002848294C294D2A4E0022C3E90022C3E99D
:1014E0000222C3E90422C3E90622C3E90822C3E9B0
:1014F0000A22C3E90C22C3E90E22C3E91022C3E980
:101500001222C3E91422C3E91622C3E91822C3E94F
:101510001A22C3E91C22C3E91E22C3F880200168F5
:10152000C3F8842041F480210160C3F3072100F552
:1015300028302170C3F307475430124937701B0E0F
:101540002B70114FFF2304F81C3C03700F4C0B70E1
:101550000F4801233B7085F84C2006F82C3C702581
:101560004FF4007210232570026081F8F830F8BD46
:101570000080FF1F348004409C200740B4200740B7
:10158000B0200740102007409420074049E400E0C5
:1015900008E100E010B572B60B480268B2FA82F1B9
:1015A0000B2902DD62B6002010BD4FF00043CB4096
:1015B00022EA0302026062B6044C48234B43E0185F
:1015C0000022E2504260EFE75087FF1FBC83FF1FFD
:1015D0000C4B4822C31AB3FBF2F30B2B11D80A4A67
:1015E000127822B1094A12780AB1FFF769B972B6C6
:1015F00007494FF0004222FA03F30A681A430A60CF
:1016000062B67047BC83FF1FC688FF1FC488FF1FD8
:101610005087FF1F38B5104C236863B1206843889A
:10162000C2180133157A02889A4212D8FFF7D0FF08
:101630000023236004E0094B1B781BB94FF0FF35F2
:10164000284638BD0320FFF71DF920600028E5D1AA
:10165000F4E74380F4E700BFC888FF1FC488FF1F7A
:10166000044B9888044B1A681AB1138852889B1A45
:1016700018447047788AFF1FC888FF1F38B50E4B83
:101680001B7803F0FF0543B90C4C216831B14B883E
:101690000B800420FFF778F9256038BDFFF77AFF4B
:1016A000014620B10420BDE83840FFF76DB9044B76
:1016B00001221A70F1E700BFCC88FF1FD088FF1FFE
:1016C000D588FF1F70B50B4D0B4E0024EFF3108231
:1016D00072B6286858B143692B6033B19C6102B976
:1016E00062B6447783689847F0E73360F7E702B95A
:1016F00062B670BDE888FF1FE488FF1FFFF7E2BFF6
:1017000015490B6830B52BB9C0E9023308600223D4
:10171000037530BD04681A68944206D20025121B76
:101720008360C560D8601A60F0E702681C68996839
:10173000121B026061B10C6894420B46F5D98160BE
:10174000C968C160D860C168A21A88601A60DEE703
:10175000C0E902139860DAE7D888FF1F70B5154D0D
:101760002C6800261CB1236883B1013B2360EFF392
:10177000108272B6104B00211868196002B962B667
:10178000B8B18468FFF7BCFF2046F9E7A26802B150
:10179000D36020692A60036826751B6822460021F1
:1017A000984763681BB123602046FFF7A9FF2C68A8
:1017B000D8E770BDD888FF1FDC88FF1F024A136876
:1017C00001331360FFF7CABFE487FF1F08B5FEF7B8
:1017D000C0FEFEF732FF00F003F8FAE77047FFFFA4
:1017E00038B51E4C237813BB01232370FFF738FF55
:1017F00008B1FFF7F3FF00F0B7F808B100F082FA84
:1018000000F042F908B100F07EFA00F0CDF908B11D
:1018100000F07AFA00232370EFF305833BB9EFF36E
:10182000108272B60E4D286810B902B962B638BD82
:101830000C4C21780029F8D10123237043692B60D7
:1018400043B1996102B962B600254577836898472C
:101850002570ECE704490B60F4E700BFF488FF1F34
:10186000E088FF1FEC88FF1FF088FF1F10B5204B9A
:101870002048214960221A70E1225A701F4B204AE9
:101880001C78204B082C1AD1012404601320086016
:10189000146018601C4B1D491B781D4A03B10123BD
:1018A0000B6013601B4B1C4A19781C4B012911D883
:1018B0008021116019601A4B01221A7010BD0A2C88
:1018C00001D13924E1E70C2C0CBF35243D24046000
:1018D0001220DCE7042901D88421EAE7082901D88D
:1018E0008521E6E7102994BF86218721E1E700BF23
:1018F0000040074008B003400CB003405487FF1F6E
:1019000008B00B400CB00B40F588FF1F20B003401F
:1019100020B00B405587FF1F24B0034024B00B407C
:10192000F688FF1F70B50026B0FBF2F302FB13052B
:10193000ECB2092D94BF30343734E4B28C551846DC
:101940000BB10136F0E78A19481E5370F41AA3420E
:1019500001DB084670BD10F8014F157805700133A2
:1019600002F80149F2E7FFFF054B064A1878C3B2B7
:101970001078C0B2834238BF4033181A704700BF96
:101980003C89FF1F3D89FF1FF0B535490B7913F0E6
:10199000300F09D072B68B7D03F0FF04002B37D1D6
:1019A000CB7940234B7462B62D4AD178C9B20D066B
:1019B0001ED513791C061BD52A4B2B481D7803789E
:1019C0002A4EEDB2DBB2AB420AD00133402B28BF26
:1019D00000231479F45CE4B2D471147D072CF2D99D
:1019E000DBB203701E4B1A79100644BF7C22DA70FA
:1019F00049060CD51A4B1A79520608D51C4A002103
:101A000011701C4A126802B111703C22DA70F0BDEC
:101A100062B6194D194A2B781278194FDBB2D2B23F
:101A2000581C4028CE7928BF00209042F6B21CBF37
:101A30003E540346601E10F0FF04F1D1D9B2297064
:101A4000104909680029AFD0934236BFC2F1400265
:101A50009B1A9B18272BC4BF01230B70A4E700BF60
:101A600000A006408589FF1F8689FF1F4589FF1F4B
:101A70004489FF1F4089FF1F3C89FF1F3D89FF1FCD
:101A8000FC88FF1FF888FF1F054B064A1878C3B271
:101A90001078C0B2834238BF4033181A704700BF75
:101AA000CC89FF1FCD89FF1FF0B535490B7913F0A5
:101AB000300F09D072B68B7D03F0FF04002B37D1B5
:101AC000CB7940234B7462B62D4AD178C9B20D064A
:101AD0001ED513791C061BD52A4B2B481D7803787D
:101AE0002A4EEDB2DBB2AB420AD00133282B28BF1D
:101AF00000231479F45CE4B2D471147D072CF2D97C
:101B0000DBB203701E4B1A79100644BF7C22DA70D8
:101B100049060CD51A4B1A79520608D51C4A0021E1
:101B200011701C4A126802B111703C22DA70F0BDCB
:101B300062B6194D194A2B781278194FDBB2D2B21E
:101B4000581C4028CE7928BF00209042F6B21CBF16
:101B50003E540346601E10F0FF04F1D1D9B2297043
:101B6000104909680029AFD0934236BFC2F1400244
:101B70009B1A9B18272BC4BF01230B70A4E700BF3F
:101B800000B00640FD89FF1FFE89FF1FD589FF1F9A
:101B9000D489FF1FD089FF1FCC89FF1FCD89FF1F6C
:101BA0008C89FF1F8889FF1F054B064A1878C3B22E
:101BB0001078C0B2834238BF4033181A704700BF54
:101BC000448AFF1F458AFF1F10B5284B1A799206D9
:101BD00020D52749DA790B78264801330078402B45
:101BE000A8BF0023984218BF2348D2B21EBFC254D8
:101BF000DAB20A70214A116861B1214A1278D2B270
:101C0000934236BFC2F140029B1A9B18272BC4BFD8
:101C100001230B701549CA78D2B214060BD50B7983
:101C2000180608D5174B164C18782378DBB2984263
:101C300011D16C23CB7051060CD50C4B1A7952067E
:101C400008D5114A00211170104A126802B11170B2
:101C50002C22DA7010BD0133282B28BF00230C483A
:101C6000C05CDBB2C0B2C8712370E4E700C00640BC
:101C7000448AFF1F458AFF1F048AFF1F008AFF1F37
:101C8000768AFF1F758AFF1F4C8AFF1F488AFF1F35
:101C90004D8AFF1F1FB572B6154B70221A70154A78
:101CA000412111700F2102F8011C80221A701A784C
:101CB0001206FCD5104B186862B6104B984298BFBC
:101CC0000A2301AC98BF58430A222146FFF72AFE97
:101CD0000B4A0023E05C591C20B10A2922F81100AC
:101CE0000B46F7D101335B00137004B010BD00BF89
:101CF0000000024007000240080002407F96980062
:101D0000B087FF1F704770477047FFFF70B50F4ED9
:101D10000F4DAD1BAD1007D00024A300F3580134C4
:101D200000F01CF8A542F8D100F0CEF8094E0A4D9B
:101D3000AD1BAD1007D00024A300F358013400F010
:101D40000DF8A542F8D170BC01BC0047D41E0000BC
:101D5000D41E0000D41E0000D81E00001847C04644
:101D60004008FE4340A004404408FE4344A0044011
:101D70000018FE4300C004403000FE433090044091
:101D80003400FE43349004401C18FE431CC0044041
:101D90001018FE4310C004400818FE4308C0044059
:101DA0000C18FE430CC004400C10FE430CB0044061
:101DB0001010FE4310B004401810FE4318B0044049
:101DC0001C10FE431CB004401410FE4314B0044029
:101DD0000418FE4304C004400010FE4300B0044059
:101DE0000008FE4300A004400408FE4304A0044091
:101DF0000C08FE430CA004400808FE4308A0044061
:101E00001418FE4314C004401818FE4318C00440C0
:101E10000410FE4304B004400810FE4308B0044020
:101E20001400FE43149004404C08FE434CA00440B0
:101E30000420FE4304D004402410FE4324B0044098
:101E40002010FE4320B004402810FE4328B0044078
:101E50002C10FE432CB004400020FE4300D0044070
:101E60004808FE4348A004401000FE431090044080
:101E7000000100009987FF1F12000000000200000F
:101E80005687FF1F4300000000030000AC87FF1FC0
:101E900000000000010309041C87FF1F0000000070
:101EA000020309042487FF1F000000000303090444
:101EB0004A87FF1F00000000000000000000000033
:101EC0000000000000151915F8B5C046F8BC08BCA4
:081ED0009E46704799040000D2
:041ED800F8B5C04653
:101EDC0008036A006300730026034D00610069006B
:101EEC006C00730074006100740069006F006E0078
:101EFC0020004C006F006100640065007200030359
:101F0C0001000000FFFFFFFF0A0409024300020169
:101F1C0000C0320904000001020201000524001077
:101F2C000105240101010424020605240600010711
:101F3C0005820310004009040100020A000000079A
:101F4C000503024000000705840240000012011046
:101F5C000102000040C01683047502010203010057
:101F6C00040309040C030000000000000000000042
:0C1F7C0000000000000000000000000059
:00000001FF
